{
  "transactions": [
    {
      "hash": "0x5694f33caf4a9c0ccdb2fe071706c736278c41d8739bf740db3cd100dc2a6d0b",
      "transactionType": "CALL",
      "contractName": null,
      "contractAddress": "0xfFf9976782d46CC05630D1f6eBAb18b2324d6B14",
      "function": null,
      "arguments": null,
      "transaction": {
        "type": "0x02",
        "from": "0x097cf877320845ff3dc6ae7916b913843cc11a50",
        "to": "0xfff9976782d46cc05630d1f6ebab18b2324d6b14",
        "gas": "0x9f9b",
        "value": "0x2386f26fc10000",
        "data": "0xd0e30db0",
        "nonce": "0xa3",
        "accessList": []
      },
      "additionalContracts": [],
      "isFixedGasLimit": false
    },
    {
      "hash": "0xed80d6fd7042cb65fdd25e4a413b00808aa6e40b479e71861a05777f0f696338",
      "transactionType": "CALL",
      "contractName": null,
      "contractAddress": "0x73Cad2D9564c8eE08D913053429CE49209642fC2",
      "function": "approve(address,uint256)",
      "arguments": [
        "0xC532a74256D3Db42D0Bf7a0400fEFDbad7694008",
        "115792089237316195423570985008687907853269984665640564039457584007913129639935"
      ],
      "transaction": {
        "type": "0x02",
        "from": "0x097cf877320845ff3dc6ae7916b913843cc11a50",
        "to": "0x73cad2d9564c8ee08d913053429ce49209642fc2",
        "gas": "0x97f7",
        "value": "0x0",
        "data": "0x095ea7b3000000000000000000000000c532a74256d3db42d0bf7a0400fefdbad7694008ffffffffffffffffffffffffffffffffffffffffffffffffffffffffffffffff",
        "nonce": "0xa4",
        "accessList": []
      },
      "additionalContracts": [],
      "isFixedGasLimit": false
    },
    {
      "hash": "0x9113a3242a1d21715858a2609c0fca3bc06a07f1456d2de62ef467f2d5b088f9",
      "transactionType": "CALL",
      "contractName": null,
      "contractAddress": "0xfFf9976782d46CC05630D1f6eBAb18b2324d6B14",
      "function": "approve(address,uint256)",
      "arguments": [
        "0xC532a74256D3Db42D0Bf7a0400fEFDbad7694008",
        "115792089237316195423570985008687907853269984665640564039457584007913129639935"
      ],
      "transaction": {
        "type": "0x02",
        "from": "0x097cf877320845ff3dc6ae7916b913843cc11a50",
        "to": "0xfff9976782d46cc05630d1f6ebab18b2324d6b14",
        "gas": "0x8eb8",
        "value": "0x0",
        "data": "0x095ea7b3000000000000000000000000c532a74256d3db42d0bf7a0400fefdbad7694008ffffffffffffffffffffffffffffffffffffffffffffffffffffffffffffffff",
        "nonce": "0xa5",
        "accessList": []
      },
      "additionalContracts": [],
      "isFixedGasLimit": false
    },
    {
      "hash": "0x42f7e8975a63994f279cfaa29e6727c68e8c2d431f318d94c32075d662acb4c8",
      "transactionType": "CALL",
      "contractName": null,
      "contractAddress": "0xC532a74256D3Db42D0Bf7a0400fEFDbad7694008",
      "function": null,
      "arguments": null,
      "transaction": {
        "type": "0x02",
        "from": "0x097cf877320845ff3dc6ae7916b913843cc11a50",
        "to": "0xc532a74256d3db42d0bf7a0400fefdbad7694008",
        "gas": "0x41d3e",
        "value": "0x0",
        "data": "0xe8e33700000000000000000000000000fff9976782d46cc05630d1f6ebab18b2324d6b1400000000000000000000000073cad2d9564c8ee08d913053429ce49209642fc2000000000000000000000000000000000000000000000000002386f26fc1000000000000000000000000000000000000000000000000003635c9adc5dea0000000000000000000000000000000000000000000000000000000000000000000640000000000000000000000000000000000000000000000000000000000000064000000000000000000000000097cf877320845ff3dc6ae7916b913843cc11a5000000000000000000000000000000000000000000000000000000000669cfcea",
        "nonce": "0xa6",
        "accessList": []
      },
      "additionalContracts": [],
      "isFixedGasLimit": false
    }
  ],
  "receipts": [
    {
      "transactionHash": "0x5694f33caf4a9c0ccdb2fe071706c736278c41d8739bf740db3cd100dc2a6d0b",
      "transactionIndex": "0x16",
      "blockHash": "0xeb2fd6517d021d73aa66c7161d4b4a2e0a282f1ee6534521f14483f4394b8bfd",
      "blockNumber": "0x60e601",
      "from": "0x097cF877320845ff3dc6ae7916b913843cC11a50",
      "to": "0xfFf9976782d46CC05630D1f6eBAb18b2324d6B14",
      "cumulativeGasUsed": "0x1b995a",
      "gasUsed": "0x6d22",
      "contractAddress": null,
      "logs": [
        {
          "address": "0xfFf9976782d46CC05630D1f6eBAb18b2324d6B14",
          "topics": [
            "0xe1fffcc4923d04b559f4d29a8bfc6cda04eb5b0d3c460751c2402c5c5cc9109c",
            "0x000000000000000000000000097cf877320845ff3dc6ae7916b913843cc11a50"
          ],
          "data": "0x000000000000000000000000000000000000000000000000002386f26fc10000",
          "blockHash": "0xeb2fd6517d021d73aa66c7161d4b4a2e0a282f1ee6534521f14483f4394b8bfd",
          "blockNumber": "0x60e601",
          "transactionHash": "0x5694f33caf4a9c0ccdb2fe071706c736278c41d8739bf740db3cd100dc2a6d0b",
          "transactionIndex": "0x16",
          "logIndex": "0x15",
          "removed": false
        }
      ],
      "status": "0x1",
      "logsBloom": "0x20000000002000000000000000000000000000000000000000000000000000000000000000000000000000000000000000000000000000000000000000000000000000000000000000000000000000000000000000000000000000008000000000000000000000000000000000000000000000000000000000000000000000000040000000000000000000000000000000000001000000000000000000000000000020000000000000000000000000000000000000000000000000000000000000000000000000000002000000000000000000000000000000000000000000000000000000000000000000000000000000000000000000400000000008000000",
      "type": "0x2",
      "effectiveGasPrice": "0xcdc016a0"
    },
    {
      "transactionHash": "0xed80d6fd7042cb65fdd25e4a413b00808aa6e40b479e71861a05777f0f696338",
      "transactionIndex": "0x17",
      "blockHash": "0xeb2fd6517d021d73aa66c7161d4b4a2e0a282f1ee6534521f14483f4394b8bfd",
      "blockNumber": "0x60e601",
      "from": "0x097cF877320845ff3dc6ae7916b913843cC11a50",
      "to": "0x73Cad2D9564c8eE08D913053429CE49209642fC2",
      "cumulativeGasUsed": "0x1c0143",
      "gasUsed": "0x67e9",
      "contractAddress": null,
      "logs": [
        {
          "address": "0x73Cad2D9564c8eE08D913053429CE49209642fC2",
          "topics": [
            "0x8c5be1e5ebec7d5bd14f71427d1e84f3dd0314c0f7b2291e5b200ac8c7c3b925",
            "0x000000000000000000000000097cf877320845ff3dc6ae7916b913843cc11a50",
            "0x000000000000000000000000c532a74256d3db42d0bf7a0400fefdbad7694008"
          ],
          "data": "0xffffffffffffffffffffffffffffffffffffffffffffffffffffffffffffffff",
          "blockHash": "0xeb2fd6517d021d73aa66c7161d4b4a2e0a282f1ee6534521f14483f4394b8bfd",
          "blockNumber": "0x60e601",
          "transactionHash": "0xed80d6fd7042cb65fdd25e4a413b00808aa6e40b479e71861a05777f0f696338",
          "transactionIndex": "0x17",
          "logIndex": "0x16",
          "removed": false
        }
      ],
      "status": "0x1",
      "logsBloom": "0x20000000002000000000000000000000004000000000000000000000000800000000000000000000000000000000000000000000000000000000000000200000000000000000000000000000000000000000000000000000000000000000000000000000000000000000000000040000000000000000000000000000000000000000000000000000000000000000000000000000000000000000000000000000028000000000000000000000000000000000000000000000000000000000000000000100000000000000000000000000000000000000000000000000000000000010000000000000000000000000000000000000000000000000000008000040",
      "type": "0x2",
      "effectiveGasPrice": "0xcdc016a0"
    },
    {
      "transactionHash": "0x9113a3242a1d21715858a2609c0fca3bc06a07f1456d2de62ef467f2d5b088f9",
      "transactionIndex": "0x18",
      "blockHash": "0xeb2fd6517d021d73aa66c7161d4b4a2e0a282f1ee6534521f14483f4394b8bfd",
      "blockNumber": "0x60e601",
      "from": "0x097cF877320845ff3dc6ae7916b913843cC11a50",
      "to": "0xfFf9976782d46CC05630D1f6eBAb18b2324d6B14",
      "cumulativeGasUsed": "0x1c6897",
      "gasUsed": "0x6754",
      "contractAddress": null,
      "logs": [
        {
          "address": "0xfFf9976782d46CC05630D1f6eBAb18b2324d6B14",
          "topics": [
            "0x8c5be1e5ebec7d5bd14f71427d1e84f3dd0314c0f7b2291e5b200ac8c7c3b925",
            "0x000000000000000000000000097cf877320845ff3dc6ae7916b913843cc11a50",
            "0x000000000000000000000000c532a74256d3db42d0bf7a0400fefdbad7694008"
          ],
          "data": "0xffffffffffffffffffffffffffffffffffffffffffffffffffffffffffffffff",
          "blockHash": "0xeb2fd6517d021d73aa66c7161d4b4a2e0a282f1ee6534521f14483f4394b8bfd",
          "blockNumber": "0x60e601",
          "transactionHash": "0x9113a3242a1d21715858a2609c0fca3bc06a07f1456d2de62ef467f2d5b088f9",
          "transactionIndex": "0x18",
          "logIndex": "0x17",
          "removed": false
        }
      ],
      "status": "0x1",
      "logsBloom": "0x20000000002000000000000000000000000000000000000000000000000800000000000000000000000000000000000000000000000000000000000000200000000000000000000000000000000000000000000000000000000000000000000000000000000000000000000000040000000000000000000000000000000000000040000000000000000000000000000000000000000000000000000000000000020020000000000000000000000000000000000000000000000000000000000000000100000000000002000000000000000000000000000000000000000000000010000000000000000000000000000000000000000000000000000008000000",
      "type": "0x2",
      "effectiveGasPrice": "0xcdc016a0"
    },
    {
      "transactionHash": "0x42f7e8975a63994f279cfaa29e6727c68e8c2d431f318d94c32075d662acb4c8",
      "transactionIndex": "0x19",
      "blockHash": "0xeb2fd6517d021d73aa66c7161d4b4a2e0a282f1ee6534521f14483f4394b8bfd",
      "blockNumber": "0x60e601",
      "from": "0x097cF877320845ff3dc6ae7916b913843cC11a50",
      "to": "0xC532a74256D3Db42D0Bf7a0400fEFDbad7694008",
      "cumulativeGasUsed": "0x1f38c2",
      "gasUsed": "0x2d02b",
      "contractAddress": null,
      "logs": [
        {
          "address": "0xfFf9976782d46CC05630D1f6eBAb18b2324d6B14",
          "topics": [
            "0xddf252ad1be2c89b69c2b068fc378daa952ba7f163c4a11628f55a4df523b3ef",
            "0x000000000000000000000000097cf877320845ff3dc6ae7916b913843cc11a50",
            "0x00000000000000000000000042c709e52daad6e6ecb007a0342a0bc27e8ec9dd"
          ],
          "data": "0x000000000000000000000000000000000000000000000000002386f26fc10000",
          "blockHash": "0xeb2fd6517d021d73aa66c7161d4b4a2e0a282f1ee6534521f14483f4394b8bfd",
          "blockNumber": "0x60e601",
          "transactionHash": "0x42f7e8975a63994f279cfaa29e6727c68e8c2d431f318d94c32075d662acb4c8",
          "transactionIndex": "0x19",
          "logIndex": "0x18",
          "removed": false
        },
        {
          "address": "0x73Cad2D9564c8eE08D913053429CE49209642fC2",
          "topics": [
            "0xddf252ad1be2c89b69c2b068fc378daa952ba7f163c4a11628f55a4df523b3ef",
            "0x000000000000000000000000097cf877320845ff3dc6ae7916b913843cc11a50",
            "0x00000000000000000000000042c709e52daad6e6ecb007a0342a0bc27e8ec9dd"
          ],
          "data": "0x0000000000000000000000000000000000000000000000337fe5feaf2d180000",
          "blockHash": "0xeb2fd6517d021d73aa66c7161d4b4a2e0a282f1ee6534521f14483f4394b8bfd",
          "blockNumber": "0x60e601",
          "transactionHash": "0x42f7e8975a63994f279cfaa29e6727c68e8c2d431f318d94c32075d662acb4c8",
          "transactionIndex": "0x19",
          "logIndex": "0x19",
          "removed": false
        },
        {
          "address": "0x73Cad2D9564c8eE08D913053429CE49209642fC2",
          "topics": [
            "0x800f0710d5627fe1155e84a30f52e968a8b0df991b6f2538e4ab459786289a32",
            "0x000000000000000000000000097cf877320845ff3dc6ae7916b913843cc11a50"
          ],
          "data": "0x000000000000000000000000000000000000000000000002b5e3af16b1880000",
          "blockHash": "0xeb2fd6517d021d73aa66c7161d4b4a2e0a282f1ee6534521f14483f4394b8bfd",
          "blockNumber": "0x60e601",
          "transactionHash": "0x42f7e8975a63994f279cfaa29e6727c68e8c2d431f318d94c32075d662acb4c8",
          "transactionIndex": "0x19",
          "logIndex": "0x1a",
          "removed": false
        },
        {
          "address": "0x42C709e52DaAd6E6EcB007a0342a0bC27E8ec9dD",
          "topics": [
            "0xddf252ad1be2c89b69c2b068fc378daa952ba7f163c4a11628f55a4df523b3ef",
            "0x0000000000000000000000000000000000000000000000000000000000000000",
            "0x000000000000000000000000097cf877320845ff3dc6ae7916b913843cc11a50"
          ],
          "data": "0x0000000000000000000000000000000000000000000000002be2aac7077d5bc3",
          "blockHash": "0xeb2fd6517d021d73aa66c7161d4b4a2e0a282f1ee6534521f14483f4394b8bfd",
          "blockNumber": "0x60e601",
          "transactionHash": "0x42f7e8975a63994f279cfaa29e6727c68e8c2d431f318d94c32075d662acb4c8",
          "transactionIndex": "0x19",
          "logIndex": "0x1b",
          "removed": false
        },
        {
          "address": "0x42C709e52DaAd6E6EcB007a0342a0bC27E8ec9dD",
          "topics": [
            "0x1c411e9a96e071241c2f21f7726b17ae89e3cab4c78be50e062b03a9fffbbad1"
          ],
          "data": "0x00000000000000000000000000000000000000000000006c6b935b8bbd40000000000000000000000000000000000000000000000000000000470de4df820000",
          "blockHash": "0xeb2fd6517d021d73aa66c7161d4b4a2e0a282f1ee6534521f14483f4394b8bfd",
          "blockNumber": "0x60e601",
          "transactionHash": "0x42f7e8975a63994f279cfaa29e6727c68e8c2d431f318d94c32075d662acb4c8",
          "transactionIndex": "0x19",
          "logIndex": "0x1c",
          "removed": false
        },
        {
          "address": "0x42C709e52DaAd6E6EcB007a0342a0bC27E8ec9dD",
          "topics": [
            "0x4c209b5fc8ad50758f13e2e1088ba56a560dff690a1c6fef26394f4c03821c4f",
            "0x000000000000000000000000c532a74256d3db42d0bf7a0400fefdbad7694008"
          ],
          "data": "0x00000000000000000000000000000000000000000000003635c9adc5dea00000000000000000000000000000000000000000000000000000002386f26fc10000",
          "blockHash": "0xeb2fd6517d021d73aa66c7161d4b4a2e0a282f1ee6534521f14483f4394b8bfd",
          "blockNumber": "0x60e601",
          "transactionHash": "0x42f7e8975a63994f279cfaa29e6727c68e8c2d431f318d94c32075d662acb4c8",
          "transactionIndex": "0x19",
          "logIndex": "0x1d",
          "removed": false
        }
      ],
      "status": "0x1",
      "logsBloom": "0x20000000002000000000000080000000004000000000000000000000000801000000000000000000000000000000000000000000000040000000000000000000800000000000010000080008000000000000000000000000000000000000000000000000020000000000000000040800000000000008000000008010000000000440000000000000000000000000000000000000000000080000000000000000008020000010000008000000000000000000000000000000000000000000000000000102000000000002000000020000000000000000001000000000080020000000000000000000000000000000000000000000000000000000000008000040",
      "type": "0x2",
      "effectiveGasPrice": "0xcdc016a0"
    }
  ],
  "libraries": [],
  "pending": [],
  "returns": {},
  "timestamp": 1721564381,
  "chain": 11155111,
  "commit": "98e40b5"
}