{
  "transactions": [
    {
      "hash": "0x68152ae6f8c40b6a08b5de9723b50ccd415fe4aaf7a73667047d4fdd922c8f3a",
      "transactionType": "CALL",
      "contractName": null,
      "contractAddress": "0xfFf9976782d46CC05630D1f6eBAb18b2324d6B14",
      "function": null,
      "arguments": null,
      "transaction": {
        "type": "0x02",
        "from": "0x097cf877320845ff3dc6ae7916b913843cc11a50",
        "to": "0xfff9976782d46cc05630d1f6ebab18b2324d6b14",
        "gas": "0x9f9b",
        "value": "0x2c68af0bb140000",
        "data": "0xd0e30db0",
        "nonce": "0x48",
        "accessList": []
      },
      "additionalContracts": [],
      "isFixedGasLimit": false
    },
    {
      "hash": "0xccddc1361cae3e87394ac736b5ef2096d622e0689b6b49a75673962f075c1eb9",
      "transactionType": "CALL",
      "contractName": null,
      "contractAddress": "0xaF08abEceA4f59FB6996Af3EfB9329991275B30E",
      "function": "approve(address,uint256)",
      "arguments": [
        "0xC532a74256D3Db42D0Bf7a0400fEFDbad7694008",
        "115792089237316195423570985008687907853269984665640564039457584007913129639935"
      ],
      "transaction": {
        "type": "0x02",
        "from": "0x097cf877320845ff3dc6ae7916b913843cc11a50",
        "to": "0xaf08abecea4f59fb6996af3efb9329991275b30e",
        "gas": "0xfae5",
        "value": "0x0",
        "data": "0x095ea7b3000000000000000000000000c532a74256d3db42d0bf7a0400fefdbad7694008ffffffffffffffffffffffffffffffffffffffffffffffffffffffffffffffff",
        "nonce": "0x49",
        "accessList": []
      },
      "additionalContracts": [],
      "isFixedGasLimit": false
    },
    {
      "hash": "0xcb8a230082c59d63a374be0d430468ae305d40160f73a7ccce26af7b14e203f2",
      "transactionType": "CALL",
      "contractName": null,
      "contractAddress": "0xfFf9976782d46CC05630D1f6eBAb18b2324d6B14",
      "function": "approve(address,uint256)",
      "arguments": [
        "0xC532a74256D3Db42D0Bf7a0400fEFDbad7694008",
        "115792089237316195423570985008687907853269984665640564039457584007913129639935"
      ],
      "transaction": {
        "type": "0x02",
        "from": "0x097cf877320845ff3dc6ae7916b913843cc11a50",
        "to": "0xfff9976782d46cc05630d1f6ebab18b2324d6b14",
        "gas": "0x8eb8",
        "value": "0x0",
        "data": "0x095ea7b3000000000000000000000000c532a74256d3db42d0bf7a0400fefdbad7694008ffffffffffffffffffffffffffffffffffffffffffffffffffffffffffffffff",
        "nonce": "0x4a",
        "accessList": []
      },
      "additionalContracts": [],
      "isFixedGasLimit": false
    },
    {
      "hash": "0x6ea81a0dd452d3a2bc6d3f09afcdecdb99143521b9bd758e76c96e3801ee5f7d",
      "transactionType": "CALL",
      "contractName": null,
      "contractAddress": "0xC532a74256D3Db42D0Bf7a0400fEFDbad7694008",
      "function": null,
      "arguments": null,
      "transaction": {
        "type": "0x02",
        "from": "0x097cf877320845ff3dc6ae7916b913843cc11a50",
        "to": "0xc532a74256d3db42d0bf7a0400fefdbad7694008",
        "gas": "0x58360",
        "value": "0x0",
        "data": "0xe8e33700000000000000000000000000fff9976782d46cc05630d1f6ebab18b2324d6b14000000000000000000000000af08abecea4f59fb6996af3efb9329991275b30e00000000000000000000000000000000000000000000000002c68af0bb14000000000000000000000000000000000000000000000000003635c9adc5dea0000000000000000000000000000000000000000000000000000000000000000000640000000000000000000000000000000000000000000000000000000000000064000000000000000000000000097cf877320845ff3dc6ae7916b913843cc11a5000000000000000000000000000000000000000000000000000000000663a172a",
        "nonce": "0x4b",
        "accessList": []
      },
      "additionalContracts": [],
      "isFixedGasLimit": false
    }
  ],
  "receipts": [
    {
      "transactionHash": "0x68152ae6f8c40b6a08b5de9723b50ccd415fe4aaf7a73667047d4fdd922c8f3a",
      "transactionIndex": "0x18",
      "blockHash": "0x6a90cb3bb165ca4fa52c34321e57940f982a07d9c60be9d85c32af47a780692a",
      "blockNumber": "0x5956d4",
      "from": "0x097cF877320845ff3dc6ae7916b913843cC11a50",
      "to": "0xfFf9976782d46CC05630D1f6eBAb18b2324d6B14",
      "cumulativeGasUsed": "0x233651",
      "gasUsed": "0x6d22",
      "contractAddress": null,
      "logs": [
        {
          "address": "0xfFf9976782d46CC05630D1f6eBAb18b2324d6B14",
          "topics": [
            "0xe1fffcc4923d04b559f4d29a8bfc6cda04eb5b0d3c460751c2402c5c5cc9109c",
            "0x000000000000000000000000097cf877320845ff3dc6ae7916b913843cc11a50"
          ],
          "data": "0x00000000000000000000000000000000000000000000000002c68af0bb140000",
          "blockHash": "0x6a90cb3bb165ca4fa52c34321e57940f982a07d9c60be9d85c32af47a780692a",
          "blockNumber": "0x5956d4",
          "transactionHash": "0x68152ae6f8c40b6a08b5de9723b50ccd415fe4aaf7a73667047d4fdd922c8f3a",
          "transactionIndex": "0x18",
          "logIndex": "0x11",
          "removed": false
        }
      ],
      "status": "0x1",
      "logsBloom": "0x20000000002000000000000000000000000000000000000000000000000000000000000000000000000000000000000000000000000000000000000000000000000000000000000000000000000000000000000000000000000000008000000000000000000000000000000000000000000000000000000000000000000000000040000000000000000000000000000000000001000000000000000000000000000020000000000000000000000000000000000000000000000000000000000000000000000000000002000000000000000000000000000000000000000000000000000000000000000000000000000000000000000000400000000008000000",
      "type": "0x2",
      "effectiveGasPrice": "0x7cf0c3794"
    },
    {
      "transactionHash": "0xccddc1361cae3e87394ac736b5ef2096d622e0689b6b49a75673962f075c1eb9",
      "transactionIndex": "0x19",
      "blockHash": "0x6a90cb3bb165ca4fa52c34321e57940f982a07d9c60be9d85c32af47a780692a",
      "blockNumber": "0x5956d4",
      "from": "0x097cF877320845ff3dc6ae7916b913843cC11a50",
      "to": "0xaF08abEceA4f59FB6996Af3EfB9329991275B30E",
      "cumulativeGasUsed": "0x23ebf6",
      "gasUsed": "0xb5a5",
      "contractAddress": null,
      "logs": [
        {
          "address": "0xaF08abEceA4f59FB6996Af3EfB9329991275B30E",
          "topics": [
            "0x8c5be1e5ebec7d5bd14f71427d1e84f3dd0314c0f7b2291e5b200ac8c7c3b925",
            "0x000000000000000000000000097cf877320845ff3dc6ae7916b913843cc11a50",
            "0x000000000000000000000000c532a74256d3db42d0bf7a0400fefdbad7694008"
          ],
          "data": "0xffffffffffffffffffffffffffffffffffffffffffffffffffffffffffffffff",
          "blockHash": "0x6a90cb3bb165ca4fa52c34321e57940f982a07d9c60be9d85c32af47a780692a",
          "blockNumber": "0x5956d4",
          "transactionHash": "0xccddc1361cae3e87394ac736b5ef2096d622e0689b6b49a75673962f075c1eb9",
          "transactionIndex": "0x19",
          "logIndex": "0x12",
          "removed": false
        }
      ],
      "status": "0x1",
      "logsBloom": "0x20000000002000000000000000000000000000000000000000000000000800000000000000000000000000000000010000000000000000000000000000200000000000000000000000000000000000000000000000000000000000000000000000000000000000000000000000040000000000000000000000000000000000000000000000000000000000000000000000000000000000000000000000000000020000000000000000000000000000000000000000000000000000000000000040000100000000000000000000000000000000000000000000000000000000000010000000000004000000000000000000000000000000000000000008000000",
      "type": "0x2",
      "effectiveGasPrice": "0x7cf0c3794"
    },
    {
      "transactionHash": "0xcb8a230082c59d63a374be0d430468ae305d40160f73a7ccce26af7b14e203f2",
      "transactionIndex": "0x1a",
      "blockHash": "0x6a90cb3bb165ca4fa52c34321e57940f982a07d9c60be9d85c32af47a780692a",
      "blockNumber": "0x5956d4",
      "from": "0x097cF877320845ff3dc6ae7916b913843cC11a50",
      "to": "0xfFf9976782d46CC05630D1f6eBAb18b2324d6B14",
      "cumulativeGasUsed": "0x24534a",
      "gasUsed": "0x6754",
      "contractAddress": null,
      "logs": [
        {
          "address": "0xfFf9976782d46CC05630D1f6eBAb18b2324d6B14",
          "topics": [
            "0x8c5be1e5ebec7d5bd14f71427d1e84f3dd0314c0f7b2291e5b200ac8c7c3b925",
            "0x000000000000000000000000097cf877320845ff3dc6ae7916b913843cc11a50",
            "0x000000000000000000000000c532a74256d3db42d0bf7a0400fefdbad7694008"
          ],
          "data": "0xffffffffffffffffffffffffffffffffffffffffffffffffffffffffffffffff",
          "blockHash": "0x6a90cb3bb165ca4fa52c34321e57940f982a07d9c60be9d85c32af47a780692a",
          "blockNumber": "0x5956d4",
          "transactionHash": "0xcb8a230082c59d63a374be0d430468ae305d40160f73a7ccce26af7b14e203f2",
          "transactionIndex": "0x1a",
          "logIndex": "0x13",
          "removed": false
        }
      ],
      "status": "0x1",
      "logsBloom": "0x20000000002000000000000000000000000000000000000000000000000800000000000000000000000000000000000000000000000000000000000000200000000000000000000000000000000000000000000000000000000000000000000000000000000000000000000000040000000000000000000000000000000000000040000000000000000000000000000000000000000000000000000000000000020020000000000000000000000000000000000000000000000000000000000000000100000000000002000000000000000000000000000000000000000000000010000000000000000000000000000000000000000000000000000008000000",
      "type": "0x2",
      "effectiveGasPrice": "0x7cf0c3794"
    },
    {
      "transactionHash": "0x6ea81a0dd452d3a2bc6d3f09afcdecdb99143521b9bd758e76c96e3801ee5f7d",
      "transactionIndex": "0x1b",
      "blockHash": "0x6a90cb3bb165ca4fa52c34321e57940f982a07d9c60be9d85c32af47a780692a",
      "blockNumber": "0x5956d4",
      "from": "0x097cF877320845ff3dc6ae7916b913843cC11a50",
      "to": "0xC532a74256D3Db42D0Bf7a0400fEFDbad7694008",
      "cumulativeGasUsed": "0x28511a",
      "gasUsed": "0x3fdd0",
      "contractAddress": null,
      "logs": [
        {
          "address": "0xfFf9976782d46CC05630D1f6eBAb18b2324d6B14",
          "topics": [
            "0xddf252ad1be2c89b69c2b068fc378daa952ba7f163c4a11628f55a4df523b3ef",
            "0x000000000000000000000000097cf877320845ff3dc6ae7916b913843cc11a50",
            "0x0000000000000000000000004203e59ed54865e0c465269998bfaf873edf201a"
          ],
          "data": "0x00000000000000000000000000000000000000000000000002c68af0bb140000",
          "blockHash": "0x6a90cb3bb165ca4fa52c34321e57940f982a07d9c60be9d85c32af47a780692a",
          "blockNumber": "0x5956d4",
          "transactionHash": "0x6ea81a0dd452d3a2bc6d3f09afcdecdb99143521b9bd758e76c96e3801ee5f7d",
          "transactionIndex": "0x1b",
          "logIndex": "0x14",
          "removed": false
        },
        {
          "address": "0xaF08abEceA4f59FB6996Af3EfB9329991275B30E",
          "topics": [
            "0xddf252ad1be2c89b69c2b068fc378daa952ba7f163c4a11628f55a4df523b3ef",
            "0x000000000000000000000000097cf877320845ff3dc6ae7916b913843cc11a50",
            "0x0000000000000000000000004203e59ed54865e0c465269998bfaf873edf201a"
          ],
          "data": "0x0000000000000000000000000000000000000000000000337fe5feaf2d180000",
          "blockHash": "0x6a90cb3bb165ca4fa52c34321e57940f982a07d9c60be9d85c32af47a780692a",
          "blockNumber": "0x5956d4",
          "transactionHash": "0x6ea81a0dd452d3a2bc6d3f09afcdecdb99143521b9bd758e76c96e3801ee5f7d",
          "transactionIndex": "0x1b",
          "logIndex": "0x15",
          "removed": false
        },
        {
          "address": "0xaF08abEceA4f59FB6996Af3EfB9329991275B30E",
          "topics": [
            "0x800f0710d5627fe1155e84a30f52e968a8b0df991b6f2538e4ab459786289a32",
            "0x000000000000000000000000097cf877320845ff3dc6ae7916b913843cc11a50"
          ],
          "data": "0x000000000000000000000000000000000000000000000002b5e3af16b1880000",
          "blockHash": "0x6a90cb3bb165ca4fa52c34321e57940f982a07d9c60be9d85c32af47a780692a",
          "blockNumber": "0x5956d4",
          "transactionHash": "0x6ea81a0dd452d3a2bc6d3f09afcdecdb99143521b9bd758e76c96e3801ee5f7d",
          "transactionIndex": "0x1b",
          "logIndex": "0x16",
          "removed": false
        },
        {
          "address": "0x4203E59ED54865e0c465269998BFaf873EdF201a",
          "topics": [
            "0xddf252ad1be2c89b69c2b068fc378daa952ba7f163c4a11628f55a4df523b3ef",
            "0x0000000000000000000000000000000000000000000000000000000000000000",
            "0x0000000000000000000000000000000000000000000000000000000000000000"
          ],
          "data": "0x00000000000000000000000000000000000000000000000000000000000003e8",
          "blockHash": "0x6a90cb3bb165ca4fa52c34321e57940f982a07d9c60be9d85c32af47a780692a",
          "blockNumber": "0x5956d4",
          "transactionHash": "0x6ea81a0dd452d3a2bc6d3f09afcdecdb99143521b9bd758e76c96e3801ee5f7d",
          "transactionIndex": "0x1b",
          "logIndex": "0x17",
          "removed": false
        },
        {
          "address": "0x4203E59ED54865e0c465269998BFaf873EdF201a",
          "topics": [
            "0xddf252ad1be2c89b69c2b068fc378daa952ba7f163c4a11628f55a4df523b3ef",
            "0x0000000000000000000000000000000000000000000000000000000000000000",
            "0x000000000000000000000000097cf877320845ff3dc6ae7916b913843cc11a50"
          ],
          "data": "0x000000000000000000000000000000000000000000000000c442f56be9e16d70",
          "blockHash": "0x6a90cb3bb165ca4fa52c34321e57940f982a07d9c60be9d85c32af47a780692a",
          "blockNumber": "0x5956d4",
          "transactionHash": "0x6ea81a0dd452d3a2bc6d3f09afcdecdb99143521b9bd758e76c96e3801ee5f7d",
          "transactionIndex": "0x1b",
          "logIndex": "0x18",
          "removed": false
        },
        {
          "address": "0x4203E59ED54865e0c465269998BFaf873EdF201a",
          "topics": [
            "0x1c411e9a96e071241c2f21f7726b17ae89e3cab4c78be50e062b03a9fffbbad1"
          ],
          "data": "0x00000000000000000000000000000000000000000000003635c9adc5dea0000000000000000000000000000000000000000000000000000002c68af0bb140000",
          "blockHash": "0x6a90cb3bb165ca4fa52c34321e57940f982a07d9c60be9d85c32af47a780692a",
          "blockNumber": "0x5956d4",
          "transactionHash": "0x6ea81a0dd452d3a2bc6d3f09afcdecdb99143521b9bd758e76c96e3801ee5f7d",
          "transactionIndex": "0x1b",
          "logIndex": "0x19",
          "removed": false
        },
        {
          "address": "0x4203E59ED54865e0c465269998BFaf873EdF201a",
          "topics": [
            "0x4c209b5fc8ad50758f13e2e1088ba56a560dff690a1c6fef26394f4c03821c4f",
            "0x000000000000000000000000c532a74256d3db42d0bf7a0400fefdbad7694008"
          ],
          "data": "0x00000000000000000000000000000000000000000000003635c9adc5dea0000000000000000000000000000000000000000000000000000002c68af0bb140000",
          "blockHash": "0x6a90cb3bb165ca4fa52c34321e57940f982a07d9c60be9d85c32af47a780692a",
          "blockNumber": "0x5956d4",
          "transactionHash": "0x6ea81a0dd452d3a2bc6d3f09afcdecdb99143521b9bd758e76c96e3801ee5f7d",
          "transactionIndex": "0x1b",
          "logIndex": "0x1a",
          "removed": false
        }
      ],
      "status": "0x1",
      "logsBloom": "0x20000000002000000000000080000000020000000000000000000000000801000000000000020000000000000000010000000000000000000000000000000000820000000000400000000008000000000000000000000000000000000000000000000000020000000000000000040800000000000008000000000010000000000040000000000000000000000000000000200000800000080000000000000000000020000010000008000000000000000000000000000000000000000000000040000102000000000002000000020000000000000000001000000000000020000000000000000004000000000000000000000000000000000000000008000000",
      "type": "0x2",
      "effectiveGasPrice": "0x7cf0c3794"
    }
  ],
  "libraries": [],
  "pending": [],
  "returns": {},
  "timestamp": 1715083047,
  "chain": 11155111,
  "commit": "98e40b5"
}