{
  "transactions": [
    {
      "hash": "0x5343287c097fd303e360d51730db0b0b77995e3b7c0c7a033bcdd31dab5406fe",
      "transactionType": "CALL",
      "contractName": null,
      "contractAddress": "0xfFf9976782d46CC05630D1f6eBAb18b2324d6B14",
      "function": null,
      "arguments": null,
      "transaction": {
        "type": "0x02",
        "from": "0x097cf877320845ff3dc6ae7916b913843cc11a50",
        "to": "0xfff9976782d46cc05630d1f6ebab18b2324d6b14",
        "gas": "0x9f9b",
        "value": "0x2386f26fc10000",
        "data": "0xd0e30db0",
        "nonce": "0xab",
        "accessList": []
      },
      "additionalContracts": [],
      "isFixedGasLimit": false
    },
    {
      "hash": "0x78e729af57771b516dcabe47c2817692c1f1d03a48ec935ef45ca1a6779557d8",
      "transactionType": "CALL",
      "contractName": null,
      "contractAddress": "0xab1c127Bd97A50AB188EC20D21adeb286573b7F2",
      "function": "approve(address,uint256)",
      "arguments": [
        "0xC532a74256D3Db42D0Bf7a0400fEFDbad7694008",
        "115792089237316195423570985008687907853269984665640564039457584007913129639935"
      ],
      "transaction": {
        "type": "0x02",
        "from": "0x097cf877320845ff3dc6ae7916b913843cc11a50",
        "to": "0xab1c127bd97a50ab188ec20d21adeb286573b7f2",
        "gas": "0x97f7",
        "value": "0x0",
        "data": "0x095ea7b3000000000000000000000000c532a74256d3db42d0bf7a0400fefdbad7694008ffffffffffffffffffffffffffffffffffffffffffffffffffffffffffffffff",
        "nonce": "0xac",
        "accessList": []
      },
      "additionalContracts": [],
      "isFixedGasLimit": false
    },
    {
      "hash": "0x83e692013ed665b2a7678f035ef133db4116e75319bbc5ac0d28d0ef4b11ec2f",
      "transactionType": "CALL",
      "contractName": null,
      "contractAddress": "0xfFf9976782d46CC05630D1f6eBAb18b2324d6B14",
      "function": "approve(address,uint256)",
      "arguments": [
        "0xC532a74256D3Db42D0Bf7a0400fEFDbad7694008",
        "115792089237316195423570985008687907853269984665640564039457584007913129639935"
      ],
      "transaction": {
        "type": "0x02",
        "from": "0x097cf877320845ff3dc6ae7916b913843cc11a50",
        "to": "0xfff9976782d46cc05630d1f6ebab18b2324d6b14",
        "gas": "0x8eb8",
        "value": "0x0",
        "data": "0x095ea7b3000000000000000000000000c532a74256d3db42d0bf7a0400fefdbad7694008ffffffffffffffffffffffffffffffffffffffffffffffffffffffffffffffff",
        "nonce": "0xad",
        "accessList": []
      },
      "additionalContracts": [],
      "isFixedGasLimit": false
    },
    {
      "hash": "0xecceb2bec751b552d3f07326b7b29577e1a25a0dc8b040870ba0c88bffdec266",
      "transactionType": "CALL",
      "contractName": null,
      "contractAddress": "0xC532a74256D3Db42D0Bf7a0400fEFDbad7694008",
      "function": null,
      "arguments": null,
      "transaction": {
        "type": "0x02",
        "from": "0x097cf877320845ff3dc6ae7916b913843cc11a50",
        "to": "0xc532a74256d3db42d0bf7a0400fefdbad7694008",
        "gas": "0x5c516",
        "value": "0x0",
        "data": "0xe8e33700000000000000000000000000fff9976782d46cc05630d1f6ebab18b2324d6b14000000000000000000000000ab1c127bd97a50ab188ec20d21adeb286573b7f2000000000000000000000000000000000000000000000000002386f26fc1000000000000000000000000000000000000000000000000003635c9adc5dea0000000000000000000000000000000000000000000000000000000000000000000640000000000000000000000000000000000000000000000000000000000000064000000000000000000000000097cf877320845ff3dc6ae7916b913843cc11a5000000000000000000000000000000000000000000000000000000000669cfd86",
        "nonce": "0xae",
        "accessList": []
      },
      "additionalContracts": [],
      "isFixedGasLimit": false
    }
  ],
  "receipts": [
    {
      "transactionHash": "0x5343287c097fd303e360d51730db0b0b77995e3b7c0c7a033bcdd31dab5406fe",
      "transactionIndex": "0x11",
      "blockHash": "0x620489ae5218779f17777505b308086e1cfbab6a621e0d9adbcfd2279a425d19",
      "blockNumber": "0x60e60c",
      "from": "0x097cF877320845ff3dc6ae7916b913843cC11a50",
      "to": "0xfFf9976782d46CC05630D1f6eBAb18b2324d6B14",
      "cumulativeGasUsed": "0x13dc18",
      "gasUsed": "0x6d22",
      "contractAddress": null,
      "logs": [
        {
          "address": "0xfFf9976782d46CC05630D1f6eBAb18b2324d6B14",
          "topics": [
            "0xe1fffcc4923d04b559f4d29a8bfc6cda04eb5b0d3c460751c2402c5c5cc9109c",
            "0x000000000000000000000000097cf877320845ff3dc6ae7916b913843cc11a50"
          ],
          "data": "0x000000000000000000000000000000000000000000000000002386f26fc10000",
          "blockHash": "0x620489ae5218779f17777505b308086e1cfbab6a621e0d9adbcfd2279a425d19",
          "blockNumber": "0x60e60c",
          "transactionHash": "0x5343287c097fd303e360d51730db0b0b77995e3b7c0c7a033bcdd31dab5406fe",
          "transactionIndex": "0x11",
          "logIndex": "0x10",
          "removed": false
        }
      ],
      "status": "0x1",
      "logsBloom": "0x20000000002000000000000000000000000000000000000000000000000000000000000000000000000000000000000000000000000000000000000000000000000000000000000000000000000000000000000000000000000000008000000000000000000000000000000000000000000000000000000000000000000000000040000000000000000000000000000000000001000000000000000000000000000020000000000000000000000000000000000000000000000000000000000000000000000000000002000000000000000000000000000000000000000000000000000000000000000000000000000000000000000000400000000008000000",
      "type": "0x2",
      "effectiveGasPrice": "0xd7226742"
    },
    {
      "transactionHash": "0x78e729af57771b516dcabe47c2817692c1f1d03a48ec935ef45ca1a6779557d8",
      "transactionIndex": "0x12",
      "blockHash": "0x620489ae5218779f17777505b308086e1cfbab6a621e0d9adbcfd2279a425d19",
      "blockNumber": "0x60e60c",
      "from": "0x097cF877320845ff3dc6ae7916b913843cC11a50",
      "to": "0xab1c127Bd97A50AB188EC20D21adeb286573b7F2",
      "cumulativeGasUsed": "0x144401",
      "gasUsed": "0x67e9",
      "contractAddress": null,
      "logs": [
        {
          "address": "0xab1c127Bd97A50AB188EC20D21adeb286573b7F2",
          "topics": [
            "0x8c5be1e5ebec7d5bd14f71427d1e84f3dd0314c0f7b2291e5b200ac8c7c3b925",
            "0x000000000000000000000000097cf877320845ff3dc6ae7916b913843cc11a50",
            "0x000000000000000000000000c532a74256d3db42d0bf7a0400fefdbad7694008"
          ],
          "data": "0xffffffffffffffffffffffffffffffffffffffffffffffffffffffffffffffff",
          "blockHash": "0x620489ae5218779f17777505b308086e1cfbab6a621e0d9adbcfd2279a425d19",
          "blockNumber": "0x60e60c",
          "transactionHash": "0x78e729af57771b516dcabe47c2817692c1f1d03a48ec935ef45ca1a6779557d8",
          "transactionIndex": "0x12",
          "logIndex": "0x11",
          "removed": false
        }
      ],
      "status": "0x1",
      "logsBloom": "0x20000000002000800000000000000000000000000000000000000000000800000000000000000000000000000000000000000000000000000000000000200000000000000000000000000000000000000000000000000000000000000000000000000000000000000000000000040000000000000000000000000000000000000000000000000000000000000000000000100000000000000000000000000000020000000000000000000000000000000000000000000000000000000000000000000100000000000000000000000000000000000000000000000000000000000010000000000000008000000000000000000000000000000000000008000000",
      "type": "0x2",
      "effectiveGasPrice": "0xd7226742"
    },
    {
      "transactionHash": "0x83e692013ed665b2a7678f035ef133db4116e75319bbc5ac0d28d0ef4b11ec2f",
      "transactionIndex": "0x13",
      "blockHash": "0x620489ae5218779f17777505b308086e1cfbab6a621e0d9adbcfd2279a425d19",
      "blockNumber": "0x60e60c",
      "from": "0x097cF877320845ff3dc6ae7916b913843cC11a50",
      "to": "0xfFf9976782d46CC05630D1f6eBAb18b2324d6B14",
      "cumulativeGasUsed": "0x14ab55",
      "gasUsed": "0x6754",
      "contractAddress": null,
      "logs": [
        {
          "address": "0xfFf9976782d46CC05630D1f6eBAb18b2324d6B14",
          "topics": [
            "0x8c5be1e5ebec7d5bd14f71427d1e84f3dd0314c0f7b2291e5b200ac8c7c3b925",
            "0x000000000000000000000000097cf877320845ff3dc6ae7916b913843cc11a50",
            "0x000000000000000000000000c532a74256d3db42d0bf7a0400fefdbad7694008"
          ],
          "data": "0xffffffffffffffffffffffffffffffffffffffffffffffffffffffffffffffff",
          "blockHash": "0x620489ae5218779f17777505b308086e1cfbab6a621e0d9adbcfd2279a425d19",
          "blockNumber": "0x60e60c",
          "transactionHash": "0x83e692013ed665b2a7678f035ef133db4116e75319bbc5ac0d28d0ef4b11ec2f",
          "transactionIndex": "0x13",
          "logIndex": "0x12",
          "removed": false
        }
      ],
      "status": "0x1",
      "logsBloom": "0x20000000002000000000000000000000000000000000000000000000000800000000000000000000000000000000000000000000000000000000000000200000000000000000000000000000000000000000000000000000000000000000000000000000000000000000000000040000000000000000000000000000000000000040000000000000000000000000000000000000000000000000000000000000020020000000000000000000000000000000000000000000000000000000000000000100000000000002000000000000000000000000000000000000000000000010000000000000000000000000000000000000000000000000000008000000",
      "type": "0x2",
      "effectiveGasPrice": "0xd7226742"
    },
    {
      "transactionHash": "0xecceb2bec751b552d3f07326b7b29577e1a25a0dc8b040870ba0c88bffdec266",
      "transactionIndex": "0x14",
      "blockHash": "0x620489ae5218779f17777505b308086e1cfbab6a621e0d9adbcfd2279a425d19",
      "blockNumber": "0x60e60c",
      "from": "0x097cF877320845ff3dc6ae7916b913843cC11a50",
      "to": "0xC532a74256D3Db42D0Bf7a0400fEFDbad7694008",
      "cumulativeGasUsed": "0x189d4f",
      "gasUsed": "0x3f1fa",
      "contractAddress": null,
      "logs": [
        {
          "address": "0xfFf9976782d46CC05630D1f6eBAb18b2324d6B14",
          "topics": [
            "0xddf252ad1be2c89b69c2b068fc378daa952ba7f163c4a11628f55a4df523b3ef",
            "0x000000000000000000000000097cf877320845ff3dc6ae7916b913843cc11a50",
            "0x000000000000000000000000fb7ef6cda120d07a212104358230933535212114"
          ],
          "data": "0x000000000000000000000000000000000000000000000000002386f26fc10000",
          "blockHash": "0x620489ae5218779f17777505b308086e1cfbab6a621e0d9adbcfd2279a425d19",
          "blockNumber": "0x60e60c",
          "transactionHash": "0xecceb2bec751b552d3f07326b7b29577e1a25a0dc8b040870ba0c88bffdec266",
          "transactionIndex": "0x14",
          "logIndex": "0x13",
          "removed": false
        },
        {
          "address": "0xab1c127Bd97A50AB188EC20D21adeb286573b7F2",
          "topics": [
            "0xddf252ad1be2c89b69c2b068fc378daa952ba7f163c4a11628f55a4df523b3ef",
            "0x000000000000000000000000097cf877320845ff3dc6ae7916b913843cc11a50",
            "0x000000000000000000000000fb7ef6cda120d07a212104358230933535212114"
          ],
          "data": "0x0000000000000000000000000000000000000000000000337fe5feaf2d180000",
          "blockHash": "0x620489ae5218779f17777505b308086e1cfbab6a621e0d9adbcfd2279a425d19",
          "blockNumber": "0x60e60c",
          "transactionHash": "0xecceb2bec751b552d3f07326b7b29577e1a25a0dc8b040870ba0c88bffdec266",
          "transactionIndex": "0x14",
          "logIndex": "0x14",
          "removed": false
        },
        {
          "address": "0xab1c127Bd97A50AB188EC20D21adeb286573b7F2",
          "topics": [
            "0x800f0710d5627fe1155e84a30f52e968a8b0df991b6f2538e4ab459786289a32",
            "0x000000000000000000000000097cf877320845ff3dc6ae7916b913843cc11a50"
          ],
          "data": "0x000000000000000000000000000000000000000000000002b5e3af16b1880000",
          "blockHash": "0x620489ae5218779f17777505b308086e1cfbab6a621e0d9adbcfd2279a425d19",
          "blockNumber": "0x60e60c",
          "transactionHash": "0xecceb2bec751b552d3f07326b7b29577e1a25a0dc8b040870ba0c88bffdec266",
          "transactionIndex": "0x14",
          "logIndex": "0x15",
          "removed": false
        },
        {
          "address": "0xfB7Ef6Cda120d07A212104358230933535212114",
          "topics": [
            "0xddf252ad1be2c89b69c2b068fc378daa952ba7f163c4a11628f55a4df523b3ef",
            "0x0000000000000000000000000000000000000000000000000000000000000000",
            "0x0000000000000000000000000000000000000000000000000000000000000000"
          ],
          "data": "0x00000000000000000000000000000000000000000000000000000000000003e8",
          "blockHash": "0x620489ae5218779f17777505b308086e1cfbab6a621e0d9adbcfd2279a425d19",
          "blockNumber": "0x60e60c",
          "transactionHash": "0xecceb2bec751b552d3f07326b7b29577e1a25a0dc8b040870ba0c88bffdec266",
          "transactionIndex": "0x14",
          "logIndex": "0x16",
          "removed": false
        },
        {
          "address": "0xfB7Ef6Cda120d07A212104358230933535212114",
          "topics": [
            "0xddf252ad1be2c89b69c2b068fc378daa952ba7f163c4a11628f55a4df523b3ef",
            "0x0000000000000000000000000000000000000000000000000000000000000000",
            "0x000000000000000000000000097cf877320845ff3dc6ae7916b913843cc11a50"
          ],
          "data": "0x0000000000000000000000000000000000000000000000002be2aac7077d57db",
          "blockHash": "0x620489ae5218779f17777505b308086e1cfbab6a621e0d9adbcfd2279a425d19",
          "blockNumber": "0x60e60c",
          "transactionHash": "0xecceb2bec751b552d3f07326b7b29577e1a25a0dc8b040870ba0c88bffdec266",
          "transactionIndex": "0x14",
          "logIndex": "0x17",
          "removed": false
        },
        {
          "address": "0xfB7Ef6Cda120d07A212104358230933535212114",
          "topics": [
            "0x1c411e9a96e071241c2f21f7726b17ae89e3cab4c78be50e062b03a9fffbbad1"
          ],
          "data": "0x00000000000000000000000000000000000000000000003635c9adc5dea00000000000000000000000000000000000000000000000000000002386f26fc10000",
          "blockHash": "0x620489ae5218779f17777505b308086e1cfbab6a621e0d9adbcfd2279a425d19",
          "blockNumber": "0x60e60c",
          "transactionHash": "0xecceb2bec751b552d3f07326b7b29577e1a25a0dc8b040870ba0c88bffdec266",
          "transactionIndex": "0x14",
          "logIndex": "0x18",
          "removed": false
        },
        {
          "address": "0xfB7Ef6Cda120d07A212104358230933535212114",
          "topics": [
            "0x4c209b5fc8ad50758f13e2e1088ba56a560dff690a1c6fef26394f4c03821c4f",
            "0x000000000000000000000000c532a74256d3db42d0bf7a0400fefdbad7694008"
          ],
          "data": "0x00000000000000000000000000000000000000000000003635c9adc5dea00000000000000000000000000000000000000000000000000000002386f26fc10000",
          "blockHash": "0x620489ae5218779f17777505b308086e1cfbab6a621e0d9adbcfd2279a425d19",
          "blockNumber": "0x60e60c",
          "transactionHash": "0xecceb2bec751b552d3f07326b7b29577e1a25a0dc8b040870ba0c88bffdec266",
          "transactionIndex": "0x14",
          "logIndex": "0x19",
          "removed": false
        }
      ],
      "status": "0x1",
      "logsBloom": "0x2000000000200080000000008000000000000000000000000000000000080100000000000000000000000000000000000000000000000000000000000000000080000000000000000000000800000000000000000000000000000000000020000000001002000000000200000004080000000000000800000000001000000000004000000000000000000000000000000010000000000008000000000000000000002000001800000800000000000000000000000000000000000000000000000000010200000000000200000002000002000000000000100000000000002000000000000000000000800000000000000000000000000000000000000a000000",
      "type": "0x2",
      "effectiveGasPrice": "0xd7226742"
    }
  ],
  "libraries": [],
  "pending": [],
  "returns": {},
  "timestamp": 1721564546,
  "chain": 11155111,
  "commit": "98e40b5"
}