{
  "transactions": [
    {
      "hash": "0xdbeca597007294e66bd1718981c8a441419aaa187022142c734284052eb9dd83",
      "transactionType": "CALL",
      "contractName": null,
      "contractAddress": "0xfFf9976782d46CC05630D1f6eBAb18b2324d6B14",
      "function": null,
      "arguments": null,
      "transaction": {
        "type": "0x02",
        "from": "0x097cf877320845ff3dc6ae7916b913843cc11a50",
        "to": "0xfff9976782d46cc05630d1f6ebab18b2324d6b14",
        "gas": "0x9f9b",
        "value": "0x2386f26fc10000",
        "data": "0xd0e30db0",
        "nonce": "0xa7",
        "accessList": []
      },
      "additionalContracts": [],
      "isFixedGasLimit": false
    },
    {
      "hash": "0x75d068b96324168d332543db77046101a90cb00aa1029bc0496d48cf1f94826c",
      "transactionType": "CALL",
      "contractName": null,
      "contractAddress": "0xab1c127Bd97A50AB188EC20D21adeb286573b7F2",
      "function": "approve(address,uint256)",
      "arguments": [
        "0xC532a74256D3Db42D0Bf7a0400fEFDbad7694008",
        "115792089237316195423570985008687907853269984665640564039457584007913129639935"
      ],
      "transaction": {
        "type": "0x02",
        "from": "0x097cf877320845ff3dc6ae7916b913843cc11a50",
        "to": "0xab1c127bd97a50ab188ec20d21adeb286573b7f2",
        "gas": "0x97f7",
        "value": "0x0",
        "data": "0x095ea7b3000000000000000000000000c532a74256d3db42d0bf7a0400fefdbad7694008ffffffffffffffffffffffffffffffffffffffffffffffffffffffffffffffff",
        "nonce": "0xa8",
        "accessList": []
      },
      "additionalContracts": [],
      "isFixedGasLimit": false
    },
    {
      "hash": "0xd0df14e57705113a4209d76f212a42cd29a0e434fe791a93f1c1b008d1724f8c",
      "transactionType": "CALL",
      "contractName": null,
      "contractAddress": "0xfFf9976782d46CC05630D1f6eBAb18b2324d6B14",
      "function": "approve(address,uint256)",
      "arguments": [
        "0xC532a74256D3Db42D0Bf7a0400fEFDbad7694008",
        "115792089237316195423570985008687907853269984665640564039457584007913129639935"
      ],
      "transaction": {
        "type": "0x02",
        "from": "0x097cf877320845ff3dc6ae7916b913843cc11a50",
        "to": "0xfff9976782d46cc05630d1f6ebab18b2324d6b14",
        "gas": "0x8eb8",
        "value": "0x0",
        "data": "0x095ea7b3000000000000000000000000c532a74256d3db42d0bf7a0400fefdbad7694008ffffffffffffffffffffffffffffffffffffffffffffffffffffffffffffffff",
        "nonce": "0xa9",
        "accessList": []
      },
      "additionalContracts": [],
      "isFixedGasLimit": false
    },
    {
      "hash": "0x7ccddddccda262ae9449e8f528831b74f4638e60c1116001104ac9f8e7748eb0",
      "transactionType": "CALL",
      "contractName": null,
      "contractAddress": "0xC532a74256D3Db42D0Bf7a0400fEFDbad7694008",
      "function": null,
      "arguments": null,
      "transaction": {
        "type": "0x02",
        "from": "0x097cf877320845ff3dc6ae7916b913843cc11a50",
        "to": "0xc532a74256d3db42d0bf7a0400fefdbad7694008",
        "gas": "0x5c516",
        "value": "0x0",
        "data": "0xe8e33700000000000000000000000000fff9976782d46cc05630d1f6ebab18b2324d6b14000000000000000000000000ab1c127bd97a50ab188ec20d21adeb286573b7f2000000000000000000000000000000000000000000000000002386f26fc1000000000000000000000000000000000000000000000000003635c9adc5dea0000000000000000000000000000000000000000000000000000000000000000000640000000000000000000000000000000000000000000000000000000000000064000000000000000000000000097cf877320845ff3dc6ae7916b913843cc11a5000000000000000000000000000000000000000000000000000000000669cfd3e",
        "nonce": "0xaa",
        "accessList": []
      },
      "additionalContracts": [],
      "isFixedGasLimit": false
    }
  ],
  "receipts": [
    {
      "transactionHash": "0xdbeca597007294e66bd1718981c8a441419aaa187022142c734284052eb9dd83",
      "transactionIndex": "0x23",
      "blockHash": "0x0b6699d3ae02db37a5630f7c675969bd3065585be15b1fd5982a5d3dfa7f1412",
      "blockNumber": "0x60e607",
      "from": "0x097cF877320845ff3dc6ae7916b913843cC11a50",
      "to": "0xfFf9976782d46CC05630D1f6eBAb18b2324d6B14",
      "cumulativeGasUsed": "0x34e426",
      "gasUsed": "0x6d22",
      "contractAddress": null,
      "logs": [
        {
          "address": "0xfFf9976782d46CC05630D1f6eBAb18b2324d6B14",
          "topics": [
            "0xe1fffcc4923d04b559f4d29a8bfc6cda04eb5b0d3c460751c2402c5c5cc9109c",
            "0x000000000000000000000000097cf877320845ff3dc6ae7916b913843cc11a50"
          ],
          "data": "0x000000000000000000000000000000000000000000000000002386f26fc10000",
          "blockHash": "0x0b6699d3ae02db37a5630f7c675969bd3065585be15b1fd5982a5d3dfa7f1412",
          "blockNumber": "0x60e607",
          "transactionHash": "0xdbeca597007294e66bd1718981c8a441419aaa187022142c734284052eb9dd83",
          "transactionIndex": "0x23",
          "logIndex": "0x33",
          "removed": false
        }
      ],
      "status": "0x1",
      "logsBloom": "0x20000000002000000000000000000000000000000000000000000000000000000000000000000000000000000000000000000000000000000000000000000000000000000000000000000000000000000000000000000000000000008000000000000000000000000000000000000000000000000000000000000000000000000040000000000000000000000000000000000001000000000000000000000000000020000000000000000000000000000000000000000000000000000000000000000000000000000002000000000000000000000000000000000000000000000000000000000000000000000000000000000000000000400000000008000000",
      "type": "0x2",
      "effectiveGasPrice": "0xd0a350a2"
    },
    {
      "transactionHash": "0x75d068b96324168d332543db77046101a90cb00aa1029bc0496d48cf1f94826c",
      "transactionIndex": "0x24",
      "blockHash": "0x0b6699d3ae02db37a5630f7c675969bd3065585be15b1fd5982a5d3dfa7f1412",
      "blockNumber": "0x60e607",
      "from": "0x097cF877320845ff3dc6ae7916b913843cC11a50",
      "to": "0xab1c127Bd97A50AB188EC20D21adeb286573b7F2",
      "cumulativeGasUsed": "0x354c0f",
      "gasUsed": "0x67e9",
      "contractAddress": null,
      "logs": [
        {
          "address": "0xab1c127Bd97A50AB188EC20D21adeb286573b7F2",
          "topics": [
            "0x8c5be1e5ebec7d5bd14f71427d1e84f3dd0314c0f7b2291e5b200ac8c7c3b925",
            "0x000000000000000000000000097cf877320845ff3dc6ae7916b913843cc11a50",
            "0x000000000000000000000000c532a74256d3db42d0bf7a0400fefdbad7694008"
          ],
          "data": "0xffffffffffffffffffffffffffffffffffffffffffffffffffffffffffffffff",
          "blockHash": "0x0b6699d3ae02db37a5630f7c675969bd3065585be15b1fd5982a5d3dfa7f1412",
          "blockNumber": "0x60e607",
          "transactionHash": "0x75d068b96324168d332543db77046101a90cb00aa1029bc0496d48cf1f94826c",
          "transactionIndex": "0x24",
          "logIndex": "0x34",
          "removed": false
        }
      ],
      "status": "0x1",
      "logsBloom": "0x20000000002000800000000000000000000000000000000000000000000800000000000000000000000000000000000000000000000000000000000000200000000000000000000000000000000000000000000000000000000000000000000000000000000000000000000000040000000000000000000000000000000000000000000000000000000000000000000000100000000000000000000000000000020000000000000000000000000000000000000000000000000000000000000000000100000000000000000000000000000000000000000000000000000000000010000000000000008000000000000000000000000000000000000008000000",
      "type": "0x2",
      "effectiveGasPrice": "0xd0a350a2"
    },
    {
      "transactionHash": "0xd0df14e57705113a4209d76f212a42cd29a0e434fe791a93f1c1b008d1724f8c",
      "transactionIndex": "0x25",
      "blockHash": "0x0b6699d3ae02db37a5630f7c675969bd3065585be15b1fd5982a5d3dfa7f1412",
      "blockNumber": "0x60e607",
      "from": "0x097cF877320845ff3dc6ae7916b913843cC11a50",
      "to": "0xfFf9976782d46CC05630D1f6eBAb18b2324d6B14",
      "cumulativeGasUsed": "0x35b363",
      "gasUsed": "0x6754",
      "contractAddress": null,
      "logs": [
        {
          "address": "0xfFf9976782d46CC05630D1f6eBAb18b2324d6B14",
          "topics": [
            "0x8c5be1e5ebec7d5bd14f71427d1e84f3dd0314c0f7b2291e5b200ac8c7c3b925",
            "0x000000000000000000000000097cf877320845ff3dc6ae7916b913843cc11a50",
            "0x000000000000000000000000c532a74256d3db42d0bf7a0400fefdbad7694008"
          ],
          "data": "0xffffffffffffffffffffffffffffffffffffffffffffffffffffffffffffffff",
          "blockHash": "0x0b6699d3ae02db37a5630f7c675969bd3065585be15b1fd5982a5d3dfa7f1412",
          "blockNumber": "0x60e607",
          "transactionHash": "0xd0df14e57705113a4209d76f212a42cd29a0e434fe791a93f1c1b008d1724f8c",
          "transactionIndex": "0x25",
          "logIndex": "0x35",
          "removed": false
        }
      ],
      "status": "0x1",
      "logsBloom": "0x20000000002000000000000000000000000000000000000000000000000800000000000000000000000000000000000000000000000000000000000000200000000000000000000000000000000000000000000000000000000000000000000000000000000000000000000000040000000000000000000000000000000000000040000000000000000000000000000000000000000000000000000000000000020020000000000000000000000000000000000000000000000000000000000000000100000000000002000000000000000000000000000000000000000000000010000000000000000000000000000000000000000000000000000008000000",
      "type": "0x2",
      "effectiveGasPrice": "0xd0a350a2"
    }
  ],
  "libraries": [],
  "pending": [],
  "returns": {},
  "timestamp": 1721564490,
  "chain": 11155111,
  "commit": "98e40b5"
}